{
  "contractName": "aqarchain",
  "abi": [
    {
      "inputs": [
        {
          "internalType": "address",
          "name": "_token",
          "type": "address"
        }
      ],
      "stateMutability": "nonpayable",
      "type": "constructor"
    },
    {
      "anonymous": false,
      "inputs": [
        {
          "indexed": true,
          "internalType": "address",
          "name": "previousOwner",
          "type": "address"
        },
        {
          "indexed": true,
          "internalType": "address",
          "name": "newOwner",
          "type": "address"
        }
      ],
      "name": "OwnershipTransferred",
      "type": "event"
    },
    {
      "inputs": [
        {
          "internalType": "string",
          "name": "",
          "type": "string"
        }
      ],
      "name": "amountmaptouserprivate",
      "outputs": [
        {
          "internalType": "uint256",
          "name": "",
          "type": "uint256"
        }
      ],
      "stateMutability": "view",
      "type": "function"
    },
    {
      "inputs": [
        {
          "internalType": "string",
          "name": "",
          "type": "string"
        }
      ],
      "name": "amountmaptouserpublic",
      "outputs": [
        {
          "internalType": "uint256",
          "name": "",
          "type": "uint256"
        }
      ],
      "stateMutability": "view",
      "type": "function"
    },
    {
      "inputs": [
        {
          "internalType": "string",
          "name": "",
          "type": "string"
        }
      ],
      "name": "amountmaptouserseed",
      "outputs": [
        {
          "internalType": "uint256",
          "name": "",
          "type": "uint256"
        }
      ],
      "stateMutability": "view",
      "type": "function"
    },
    {
      "inputs": [],
      "name": "claimbool",
      "outputs": [
        {
          "internalType": "bool",
          "name": "",
          "type": "bool"
        }
      ],
      "stateMutability": "view",
      "type": "function"
    },
    {
      "inputs": [],
      "name": "i",
      "outputs": [
        {
          "internalType": "uint256",
          "name": "",
          "type": "uint256"
        }
      ],
      "stateMutability": "view",
      "type": "function"
    },
    {
      "inputs": [],
      "name": "owner",
      "outputs": [
        {
          "internalType": "address",
          "name": "",
          "type": "address"
        }
      ],
      "stateMutability": "view",
      "type": "function"
    },
    {
      "inputs": [],
      "name": "privateamount",
      "outputs": [
        {
          "internalType": "uint256",
          "name": "",
          "type": "uint256"
        }
      ],
      "stateMutability": "view",
      "type": "function"
    },
    {
      "inputs": [],
      "name": "privateprice",
      "outputs": [
        {
          "internalType": "uint256",
          "name": "",
          "type": "uint256"
        }
      ],
      "stateMutability": "view",
      "type": "function"
    },
    {
      "inputs": [],
      "name": "privaterun",
      "outputs": [
        {
          "internalType": "bool",
          "name": "",
          "type": "bool"
        }
      ],
      "stateMutability": "view",
      "type": "function"
    },
    {
      "inputs": [],
      "name": "publicamount",
      "outputs": [
        {
          "internalType": "uint256",
          "name": "",
          "type": "uint256"
        }
      ],
      "stateMutability": "view",
      "type": "function"
    },
    {
      "inputs": [],
      "name": "publicprice",
      "outputs": [
        {
          "internalType": "uint256",
          "name": "",
          "type": "uint256"
        }
      ],
      "stateMutability": "view",
      "type": "function"
    },
    {
      "inputs": [],
      "name": "publicrun",
      "outputs": [
        {
          "internalType": "bool",
          "name": "",
          "type": "bool"
        }
      ],
      "stateMutability": "view",
      "type": "function"
    },
    {
      "inputs": [],
      "name": "renounceOwnership",
      "outputs": [],
      "stateMutability": "nonpayable",
      "type": "function"
    },
    {
      "inputs": [],
      "name": "seedamount",
      "outputs": [
        {
          "internalType": "uint256",
          "name": "",
          "type": "uint256"
        }
      ],
      "stateMutability": "view",
      "type": "function"
    },
    {
      "inputs": [],
      "name": "seedprice",
      "outputs": [
        {
          "internalType": "uint256",
          "name": "",
          "type": "uint256"
        }
      ],
      "stateMutability": "view",
      "type": "function"
    },
    {
      "inputs": [],
      "name": "seedrun",
      "outputs": [
        {
          "internalType": "bool",
          "name": "",
          "type": "bool"
        }
      ],
      "stateMutability": "view",
      "type": "function"
    },
    {
      "inputs": [],
      "name": "token",
      "outputs": [
        {
          "internalType": "contract IERC20",
          "name": "",
          "type": "address"
        }
      ],
      "stateMutability": "view",
      "type": "function"
    },
    {
      "inputs": [
        {
          "internalType": "address",
          "name": "newOwner",
          "type": "address"
        }
      ],
      "name": "transferOwnership",
      "outputs": [],
      "stateMutability": "nonpayable",
      "type": "function"
    },
    {
      "inputs": [
        {
          "internalType": "address",
          "name": "",
          "type": "address"
        }
      ],
      "name": "usermapprivate",
      "outputs": [
        {
          "internalType": "string",
          "name": "firstname",
          "type": "string"
        },
        {
          "internalType": "string",
          "name": "lastname",
          "type": "string"
        },
        {
          "internalType": "string",
          "name": "country",
          "type": "string"
        },
        {
          "internalType": "uint256",
          "name": "amount",
          "type": "uint256"
        },
        {
          "internalType": "uint256",
          "name": "phase",
          "type": "uint256"
        },
        {
          "internalType": "string",
          "name": "aqarid",
          "type": "string"
        },
        {
          "internalType": "string",
          "name": "modeofpayment",
          "type": "string"
        }
      ],
      "stateMutability": "view",
      "type": "function"
    },
    {
      "inputs": [
        {
          "internalType": "address",
          "name": "",
          "type": "address"
        }
      ],
      "name": "usermappublic",
      "outputs": [
        {
          "internalType": "string",
          "name": "firstname",
          "type": "string"
        },
        {
          "internalType": "string",
          "name": "lastname",
          "type": "string"
        },
        {
          "internalType": "string",
          "name": "country",
          "type": "string"
        },
        {
          "internalType": "uint256",
          "name": "amount",
          "type": "uint256"
        },
        {
          "internalType": "uint256",
          "name": "phase",
          "type": "uint256"
        },
        {
          "internalType": "string",
          "name": "aqarid",
          "type": "string"
        },
        {
          "internalType": "string",
          "name": "modeofpayment",
          "type": "string"
        }
      ],
      "stateMutability": "view",
      "type": "function"
    },
    {
      "inputs": [
        {
          "internalType": "address",
          "name": "",
          "type": "address"
        }
      ],
      "name": "usermapseed",
      "outputs": [
        {
          "internalType": "string",
          "name": "firstname",
          "type": "string"
        },
        {
          "internalType": "string",
          "name": "lastname",
          "type": "string"
        },
        {
          "internalType": "string",
          "name": "country",
          "type": "string"
        },
        {
          "internalType": "uint256",
          "name": "amount",
          "type": "uint256"
        },
        {
          "internalType": "uint256",
          "name": "phase",
          "type": "uint256"
        },
        {
          "internalType": "string",
          "name": "aqarid",
          "type": "string"
        },
        {
          "internalType": "string",
          "name": "modeofpayment",
          "type": "string"
        }
      ],
      "stateMutability": "view",
      "type": "function"
    },
    {
      "inputs": [
        {
          "internalType": "uint256",
          "name": "",
          "type": "uint256"
        }
      ],
      "name": "usersarr",
      "outputs": [
        {
          "internalType": "address",
          "name": "",
          "type": "address"
        }
      ],
      "stateMutability": "view",
      "type": "function"
    },
    {
      "inputs": [],
      "name": "getBnbRate",
      "outputs": [
        {
          "internalType": "uint256",
          "name": "",
          "type": "uint256"
        }
      ],
      "stateMutability": "view",
      "type": "function"
    },
    {
      "inputs": [
        {
          "internalType": "string",
          "name": "_first",
          "type": "string"
        },
        {
          "internalType": "string",
          "name": "_last",
          "type": "string"
        },
        {
          "internalType": "string",
          "name": "_country",
          "type": "string"
        },
        {
          "internalType": "string",
          "name": "_id",
          "type": "string"
        },
        {
          "internalType": "uint256",
          "name": "_amount",
          "type": "uint256"
        }
      ],
      "name": "seedusdt",
      "outputs": [
        {
          "internalType": "string",
          "name": "aqarid",
          "type": "string"
        }
      ],
      "stateMutability": "nonpayable",
      "type": "function"
    },
    {
      "inputs": [
        {
          "internalType": "string",
          "name": "_first",
          "type": "string"
        },
        {
          "internalType": "string",
          "name": "_last",
          "type": "string"
        },
        {
          "internalType": "string",
          "name": "_country",
          "type": "string"
        },
        {
          "internalType": "string",
          "name": "_id",
          "type": "string"
        }
      ],
      "name": "seedbnb",
      "outputs": [],
      "stateMutability": "payable",
      "type": "function"
    },
    {
      "inputs": [
        {
          "internalType": "string",
          "name": "_first",
          "type": "string"
        },
        {
          "internalType": "string",
          "name": "_last",
          "type": "string"
        },
        {
          "internalType": "string",
          "name": "_country",
          "type": "string"
        },
        {
          "internalType": "string",
          "name": "_id",
          "type": "string"
        },
        {
          "internalType": "uint256",
          "name": "_amount",
          "type": "uint256"
        }
      ],
      "name": "privateusdt",
      "outputs": [
        {
          "internalType": "string",
          "name": "aqarid",
          "type": "string"
        }
      ],
      "stateMutability": "nonpayable",
      "type": "function"
    },
    {
      "inputs": [
        {
          "internalType": "string",
          "name": "_first",
          "type": "string"
        },
        {
          "internalType": "string",
          "name": "_last",
          "type": "string"
        },
        {
          "internalType": "string",
          "name": "_country",
          "type": "string"
        },
        {
          "internalType": "string",
          "name": "_id",
          "type": "string"
        }
      ],
      "name": "privatebnb",
      "outputs": [],
      "stateMutability": "payable",
      "type": "function"
    },
    {
      "inputs": [
        {
          "internalType": "string",
          "name": "_first",
          "type": "string"
        },
        {
          "internalType": "string",
          "name": "_last",
          "type": "string"
        },
        {
          "internalType": "string",
          "name": "_country",
          "type": "string"
        },
        {
          "internalType": "string",
          "name": "_id",
          "type": "string"
        },
        {
          "internalType": "uint256",
          "name": "_amount",
          "type": "uint256"
        }
      ],
      "name": "publicusdt",
      "outputs": [
        {
          "internalType": "string",
          "name": "aqarid",
          "type": "string"
        }
      ],
      "stateMutability": "nonpayable",
      "type": "function"
    },
    {
      "inputs": [
        {
          "internalType": "string",
          "name": "_first",
          "type": "string"
        },
        {
          "internalType": "string",
          "name": "_last",
          "type": "string"
        },
        {
          "internalType": "string",
          "name": "_country",
          "type": "string"
        },
        {
          "internalType": "string",
          "name": "_id",
          "type": "string"
        }
      ],
      "name": "publicbnb",
      "outputs": [],
      "stateMutability": "payable",
      "type": "function"
    },
    {
      "inputs": [],
      "name": "claim",
      "outputs": [],
      "stateMutability": "nonpayable",
      "type": "function"
    },
    {
      "inputs": [
        {
          "internalType": "string",
          "name": "_first",
          "type": "string"
        },
        {
          "internalType": "string",
          "name": "_last",
          "type": "string"
        },
        {
          "internalType": "string",
          "name": "_country",
          "type": "string"
        },
        {
          "internalType": "address",
          "name": "_address",
          "type": "address"
        },
        {
          "internalType": "uint256",
          "name": "_amount",
          "type": "uint256"
        },
        {
          "internalType": "string",
          "name": "_aqarid",
          "type": "string"
        }
      ],
      "name": "privatemap",
      "outputs": [],
      "stateMutability": "nonpayable",
      "type": "function"
    },
    {
      "inputs": [],
      "name": "toggleclaim",
      "outputs": [
        {
          "internalType": "uint256",
          "name": "",
          "type": "uint256"
        }
      ],
      "stateMutability": "nonpayable",
      "type": "function"
    },
    {
      "inputs": [],
      "name": "toggleseed",
      "outputs": [
        {
          "internalType": "uint256",
          "name": "",
          "type": "uint256"
        }
      ],
      "stateMutability": "nonpayable",
      "type": "function"
    },
    {
      "inputs": [],
      "name": "toggleprivate",
      "outputs": [
        {
          "internalType": "uint256",
          "name": "",
          "type": "uint256"
        }
      ],
      "stateMutability": "nonpayable",
      "type": "function"
    },
    {
      "inputs": [],
      "name": "togglepublic",
      "outputs": [
        {
          "internalType": "uint256",
          "name": "",
          "type": "uint256"
        }
      ],
      "stateMutability": "nonpayable",
      "type": "function"
    },
    {
      "inputs": [],
      "name": "getBnbBalance",
      "outputs": [
        {
          "internalType": "uint256",
          "name": "",
          "type": "uint256"
        }
      ],
      "stateMutability": "view",
      "type": "function"
    },
    {
      "inputs": [],
      "name": "adminTransferBnbFund",
      "outputs": [],
      "stateMutability": "nonpayable",
      "type": "function"
    },
    {
      "inputs": [
        {
          "internalType": "contract IERC20",
          "name": "_token",
          "type": "address"
        }
      ],
      "name": "getContractTokenBalance",
      "outputs": [
        {
          "internalType": "uint256",
          "name": "",
          "type": "uint256"
        }
      ],
      "stateMutability": "view",
      "type": "function"
    },
    {
      "inputs": [
        {
          "internalType": "contract IERC20",
          "name": "_token",
          "type": "address"
        },
        {
          "internalType": "uint256",
          "name": "value",
          "type": "uint256"
        }
      ],
      "name": "fundsWithdrawal",
      "outputs": [],
      "stateMutability": "nonpayable",
      "type": "function"
    }
  ],
  "bytecode": "0x6080604052600060085560006009556004600a55610b29600b556016600c556000601060006101000a81548160ff0219169083151502179055506000601060016101000a81548160ff0219169083151502179055506000601060026101000a81548160ff0219169083151502179055506000601060036101000a81548160ff021916908315150217905550737ef95a0fee0dd31b22626fa2e10ee6a223f8a684601260006101000a81548173ffffffffffffffffffffffffffffffffffffffff021916908373ffffffffffffffffffffffffffffffffffffffff160217905550604051806040016040528073ae13d989dac2f0debff460ac112a837c89baa7cd73ffffffffffffffffffffffffffffffffffffffff1673ffffffffffffffffffffffffffffffffffffffff168152602001737ef95a0fee0dd31b22626fa2e10ee6a223f8a68473ffffffffffffffffffffffffffffffffffffffff1673ffffffffffffffffffffffffffffffffffffffff1681525060149060026200018692919062000320565b503480156200019457600080fd5b50604051620077c7380380620077c783398181016040526020811015620001ba57600080fd5b81019080805190602001909291905050506000620001dd6200031860201b60201c565b9050806000806101000a81548173ffffffffffffffffffffffffffffffffffffffff021916908373ffffffffffffffffffffffffffffffffffffffff1602179055508073ffffffffffffffffffffffffffffffffffffffff16600073ffffffffffffffffffffffffffffffffffffffff167f8be0079c531659141344cd1fd0a4f28419497f9722a3daafe3b4186f6b6457e060405160405180910390a35080600160006101000a81548173ffffffffffffffffffffffffffffffffffffffff021916908373ffffffffffffffffffffffffffffffffffffffff160217905550739ac64cc6e4415144c455bd8e4837fea55603e5c3601360006101000a81548173ffffffffffffffffffffffffffffffffffffffff021916908373ffffffffffffffffffffffffffffffffffffffff16021790555050620003f5565b600033905090565b8280548282559060005260206000209081019282156200039c579160200282015b828111156200039b5782518260006101000a81548173ffffffffffffffffffffffffffffffffffffffff021916908373ffffffffffffffffffffffffffffffffffffffff1602179055509160200191906001019062000341565b5b509050620003ab9190620003af565b5090565b620003f291905b80821115620003ee57600081816101000a81549073ffffffffffffffffffffffffffffffffffffffff021916905550600101620003b6565b5090565b90565b6173c280620004056000396000f3fe6080604052600436106102305760003560e01c80638da5cb5b1161012e578063de84de2b116100ab578063f2fde38b1161006f578063f2fde38b14611bec578063f942264f14611c3d578063fbbbfb6214611c98578063fc0c546a14611d74578063ffd24dbb14611dcb57610230565b8063de84de2b1461158e578063e5aa3d5814611816578063eb734e1214611841578063ec5d65041461186c578063f0831abc14611a7457610230565b8063b77b9b72116100f2578063b77b9b72146113b2578063c3d20793146113e1578063cfb383dd1461145c578063d285c28414611487578063d611addf1461156357610230565b80638da5cb5b146110155780639b6911dd1461106c5780639c12c5ba14611097578063a00629b91461120f578063a0e9c3271461138757610230565b80634e71d92d116101bc57806366bb45111161018057806366bb451114610b18578063715018a614610b435780637fde419114610b5a57806387eccf5214610b8557806387f948a814610d8d57610230565b80634e71d92d1461081c5780634f806325146108335780635208da941461090f57806358b53e5b14610abe57806362a7dd7914610aed57610230565b80633132293411610203578063313229341461057c57806333f5bf311461059357806335f9166a146105be5780633bec616b146105e957806348787ca3146107f157610230565b806314205e28146102355780631be26f4f1461029a5780631dbb4983146105225780632de1b84e1461054d575b600080fd5b34801561024157600080fd5b506102846004803603602081101561025857600080fd5b81019080803573ffffffffffffffffffffffffffffffffffffffff169060200190929190505050611dfa565b6040518082815260200191505060405180910390f35b3480156102a657600080fd5b506102e9600480360360208110156102bd57600080fd5b81019080803573ffffffffffffffffffffffffffffffffffffffff169060200190929190505050611ebb565b60405180806020018060200180602001888152602001878152602001806020018060200186810386528d818151815260200191508051906020019080838360005b8381101561034557808201518184015260208101905061032a565b50505050905090810190601f1680156103725780820380516001836020036101000a031916815260200191505b5086810385528c818151815260200191508051906020019080838360005b838110156103ab578082015181840152602081019050610390565b50505050905090810190601f1680156103d85780820380516001836020036101000a031916815260200191505b5086810384528b818151815260200191508051906020019080838360005b838110156104115780820151818401526020810190506103f6565b50505050905090810190601f16801561043e5780820380516001836020036101000a031916815260200191505b50868103835288818151815260200191508051906020019080838360005b8381101561047757808201518184015260208101905061045c565b50505050905090810190601f1680156104a45780820380516001836020036101000a031916815260200191505b50868103825287818151815260200191508051906020019080838360005b838110156104dd5780820151818401526020810190506104c2565b50505050905090810190601f16801561050a5780820380516001836020036101000a031916815260200191505b509c5050505050505050505050505060405180910390f35b34801561052e57600080fd5b506105376121f5565b6040518082815260200191505060405180910390f35b34801561055957600080fd5b506105626121fb565b604051808215151515815260200191505060405180910390f35b34801561058857600080fd5b5061059161220e565b005b34801561059f57600080fd5b506105a8612320565b6040518082815260200191505060405180910390f35b3480156105ca57600080fd5b506105d3612328565b6040518082815260200191505060405180910390f35b3480156105f557600080fd5b50610776600480360360a081101561060c57600080fd5b810190808035906020019064010000000081111561062957600080fd5b82018360208201111561063b57600080fd5b8035906020019184600183028401116401000000008311171561065d57600080fd5b90919293919293908035906020019064010000000081111561067e57600080fd5b82018360208201111561069057600080fd5b803590602001918460018302840111640100000000831117156106b257600080fd5b9091929391929390803590602001906401000000008111156106d357600080fd5b8201836020820111156106e557600080fd5b8035906020019184600183028401116401000000008311171561070757600080fd5b90919293919293908035906020019064010000000081111561072857600080fd5b82018360208201111561073a57600080fd5b8035906020019184600183028401116401000000008311171561075c57600080fd5b909192939192939080359060200190929190505050612420565b6040518080602001828103825283818151815260200191508051906020019080838360005b838110156107b657808201518184015260208101905061079b565b50505050905090810190601f1680156107e35780820380516001836020036101000a031916815260200191505b509250505060405180910390f35b3480156107fd57600080fd5b50610806612bcf565b6040518082815260200191505060405180910390f35b34801561082857600080fd5b50610831612bd5565b005b34801561083f57600080fd5b506108f96004803603602081101561085657600080fd5b810190808035906020019064010000000081111561087357600080fd5b82018360208201111561088557600080fd5b803590602001918460018302840111640100000000831117156108a757600080fd5b91908080601f016020809104026020016040519081016040528093929190818152602001838380828437600081840152601f19601f8201169050808301925050505050505091929192905050506131b0565b6040518082815260200191505060405180910390f35b34801561091b57600080fd5b50610abc600480360360c081101561093257600080fd5b810190808035906020019064010000000081111561094f57600080fd5b82018360208201111561096157600080fd5b8035906020019184600183028401116401000000008311171561098357600080fd5b9091929391929390803590602001906401000000008111156109a457600080fd5b8201836020820111156109b657600080fd5b803590602001918460018302840111640100000000831117156109d857600080fd5b9091929391929390803590602001906401000000008111156109f957600080fd5b820183602082011115610a0b57600080fd5b80359060200191846001830284011164010000000083111715610a2d57600080fd5b9091929391929390803573ffffffffffffffffffffffffffffffffffffffff1690602001909291908035906020019092919080359060200190640100000000811115610a7857600080fd5b820183602082011115610a8a57600080fd5b80359060200191846001830284011164010000000083111715610aac57600080fd5b90919293919293905050506131de565b005b348015610aca57600080fd5b50610ad3613540565b604051808215151515815260200191505060405180910390f35b348015610af957600080fd5b50610b02613553565b6040518082815260200191505060405180910390f35b348015610b2457600080fd5b50610b2d61364b565b6040518082815260200191505060405180910390f35b348015610b4f57600080fd5b50610b58613839565b005b348015610b6657600080fd5b50610b6f6139c1565b6040518082815260200191505060405180910390f35b348015610b9157600080fd5b50610d12600480360360a0811015610ba857600080fd5b8101908080359060200190640100000000811115610bc557600080fd5b820183602082011115610bd757600080fd5b80359060200191846001830284011164010000000083111715610bf957600080fd5b909192939192939080359060200190640100000000811115610c1a57600080fd5b820183602082011115610c2c57600080fd5b80359060200191846001830284011164010000000083111715610c4e57600080fd5b909192939192939080359060200190640100000000811115610c6f57600080fd5b820183602082011115610c8157600080fd5b80359060200191846001830284011164010000000083111715610ca357600080fd5b909192939192939080359060200190640100000000811115610cc457600080fd5b820183602082011115610cd657600080fd5b80359060200191846001830284011164010000000083111715610cf857600080fd5b9091929391929390803590602001909291905050506139c7565b6040518080602001828103825283818151815260200191508051906020019080838360005b83811015610d52578082015181840152602081019050610d37565b50505050905090810190601f168015610d7f5780820380516001836020036101000a031916815260200191505b509250505060405180910390f35b348015610d9957600080fd5b50610ddc60048036036020811015610db057600080fd5b81019080803573ffffffffffffffffffffffffffffffffffffffff1690602001909291905050506141dd565b60405180806020018060200180602001888152602001878152602001806020018060200186810386528d818151815260200191508051906020019080838360005b83811015610e38578082015181840152602081019050610e1d565b50505050905090810190601f168015610e655780820380516001836020036101000a031916815260200191505b5086810385528c818151815260200191508051906020019080838360005b83811015610e9e578082015181840152602081019050610e83565b50505050905090810190601f168015610ecb5780820380516001836020036101000a031916815260200191505b5086810384528b818151815260200191508051906020019080838360005b83811015610f04578082015181840152602081019050610ee9565b50505050905090810190601f168015610f315780820380516001836020036101000a031916815260200191505b50868103835288818151815260200191508051906020019080838360005b83811015610f6a578082015181840152602081019050610f4f565b50505050905090810190601f168015610f975780820380516001836020036101000a031916815260200191505b50868103825287818151815260200191508051906020019080838360005b83811015610fd0578082015181840152602081019050610fb5565b50505050905090810190601f168015610ffd5780820380516001836020036101000a031916815260200191505b509c5050505050505050505050505060405180910390f35b34801561102157600080fd5b5061102a614517565b604051808273ffffffffffffffffffffffffffffffffffffffff1673ffffffffffffffffffffffffffffffffffffffff16815260200191505060405180910390f35b34801561107857600080fd5b50611081614540565b6040518082815260200191505060405180910390f35b61120d600480360360808110156110ad57600080fd5b81019080803590602001906401000000008111156110ca57600080fd5b8201836020820111156110dc57600080fd5b803590602001918460018302840111640100000000831117156110fe57600080fd5b90919293919293908035906020019064010000000081111561111f57600080fd5b82018360208201111561113157600080fd5b8035906020019184600183028401116401000000008311171561115357600080fd5b90919293919293908035906020019064010000000081111561117457600080fd5b82018360208201111561118657600080fd5b803590602001918460018302840111640100000000831117156111a857600080fd5b9091929391929390803590602001906401000000008111156111c957600080fd5b8201836020820111156111db57600080fd5b803590602001918460018302840111640100000000831117156111fd57600080fd5b9091929391929390505050614638565b005b6113856004803603608081101561122557600080fd5b810190808035906020019064010000000081111561124257600080fd5b82018360208201111561125457600080fd5b8035906020019184600183028401116401000000008311171561127657600080fd5b90919293919293908035906020019064010000000081111561129757600080fd5b8201836020820111156112a957600080fd5b803590602001918460018302840111640100000000831117156112cb57600080fd5b9091929391929390803590602001906401000000008111156112ec57600080fd5b8201836020820111156112fe57600080fd5b8035906020019184600183028401116401000000008311171561132057600080fd5b90919293919293908035906020019064010000000081111561134157600080fd5b82018360208201111561135357600080fd5b8035906020019184600183028401116401000000008311171561137557600080fd5b9091929391929390505050614e4b565b005b34801561139357600080fd5b5061139c615658565b6040518082815260200191505060405180910390f35b3480156113be57600080fd5b506113c761565e565b604051808215151515815260200191505060405180910390f35b3480156113ed57600080fd5b5061141a6004803603602081101561140457600080fd5b8101908080359060200190929190505050615671565b604051808273ffffffffffffffffffffffffffffffffffffffff1673ffffffffffffffffffffffffffffffffffffffff16815260200191505060405180910390f35b34801561146857600080fd5b506114716156ad565b6040518082815260200191505060405180910390f35b34801561149357600080fd5b5061154d600480360360208110156114aa57600080fd5b81019080803590602001906401000000008111156114c757600080fd5b8201836020820111156114d957600080fd5b803590602001918460018302840111640100000000831117156114fb57600080fd5b91908080601f016020809104026020016040519081016040528093929190818152602001838380828437600081840152601f19601f8201169050808301925050505050505091929192905050506156b3565b6040518082815260200191505060405180910390f35b34801561156f57600080fd5b506115786156e1565b6040518082815260200191505060405180910390f35b34801561159a57600080fd5b506115dd600480360360208110156115b157600080fd5b81019080803573ffffffffffffffffffffffffffffffffffffffff1690602001909291905050506157d9565b60405180806020018060200180602001888152602001878152602001806020018060200186810386528d818151815260200191508051906020019080838360005b8381101561163957808201518184015260208101905061161e565b50505050905090810190601f1680156116665780820380516001836020036101000a031916815260200191505b5086810385528c818151815260200191508051906020019080838360005b8381101561169f578082015181840152602081019050611684565b50505050905090810190601f1680156116cc5780820380516001836020036101000a031916815260200191505b5086810384528b818151815260200191508051906020019080838360005b838110156117055780820151818401526020810190506116ea565b50505050905090810190601f1680156117325780820380516001836020036101000a031916815260200191505b50868103835288818151815260200191508051906020019080838360005b8381101561176b578082015181840152602081019050611750565b50505050905090810190601f1680156117985780820380516001836020036101000a031916815260200191505b50868103825287818151815260200191508051906020019080838360005b838110156117d15780820151818401526020810190506117b6565b50505050905090810190601f1680156117fe5780820380516001836020036101000a031916815260200191505b509c5050505050505050505050505060405180910390f35b34801561182257600080fd5b5061182b615b13565b6040518082815260200191505060405180910390f35b34801561184d57600080fd5b50611856615b19565b6040518082815260200191505060405180910390f35b34801561187857600080fd5b506119f9600480360360a081101561188f57600080fd5b81019080803590602001906401000000008111156118ac57600080fd5b8201836020820111156118be57600080fd5b803590602001918460018302840111640100000000831117156118e057600080fd5b90919293919293908035906020019064010000000081111561190157600080fd5b82018360208201111561191357600080fd5b8035906020019184600183028401116401000000008311171561193557600080fd5b90919293919293908035906020019064010000000081111561195657600080fd5b82018360208201111561196857600080fd5b8035906020019184600183028401116401000000008311171561198a57600080fd5b9091929391929390803590602001906401000000008111156119ab57600080fd5b8201836020820111156119bd57600080fd5b803590602001918460018302840111640100000000831117156119df57600080fd5b909192939192939080359060200190929190505050615b1f565b6040518080602001828103825283818151815260200191508051906020019080838360005b83811015611a39578082015181840152602081019050611a1e565b50505050905090810190601f168015611a665780820380516001836020036101000a031916815260200191505b509250505060405180910390f35b611bea60048036036080811015611a8a57600080fd5b8101908080359060200190640100000000811115611aa757600080fd5b820183602082011115611ab957600080fd5b80359060200191846001830284011164010000000083111715611adb57600080fd5b909192939192939080359060200190640100000000811115611afc57600080fd5b820183602082011115611b0e57600080fd5b80359060200191846001830284011164010000000083111715611b3057600080fd5b909192939192939080359060200190640100000000811115611b5157600080fd5b820183602082011115611b6357600080fd5b80359060200191846001830284011164010000000083111715611b8557600080fd5b909192939192939080359060200190640100000000811115611ba657600080fd5b820183602082011115611bb857600080fd5b80359060200191846001830284011164010000000083111715611bda57600080fd5b909192939192939050505061633b565b005b348015611bf857600080fd5b50611c3b60048036036020811015611c0f57600080fd5b81019080803573ffffffffffffffffffffffffffffffffffffffff169060200190929190505050616ae1565b005b348015611c4957600080fd5b50611c9660048036036040811015611c6057600080fd5b81019080803573ffffffffffffffffffffffffffffffffffffffff16906020019092919080359060200190929190505050616cee565b005b348015611ca457600080fd5b50611d5e60048036036020811015611cbb57600080fd5b8101908080359060200190640100000000811115611cd857600080fd5b820183602082011115611cea57600080fd5b80359060200191846001830284011164010000000083111715611d0c57600080fd5b91908080601f016020809104026020016040519081016040528093929190818152602001838380828437600081840152601f19601f820116905080830192505050505050509192919290505050616efc565b6040518082815260200191505060405180910390f35b348015611d8057600080fd5b50611d89616f2a565b604051808273ffffffffffffffffffffffffffffffffffffffff1673ffffffffffffffffffffffffffffffffffffffff16815260200191505060405180910390f35b348015611dd757600080fd5b50611de0616f50565b604051808215151515815260200191505060405180910390f35b60008173ffffffffffffffffffffffffffffffffffffffff166370a08231306040518263ffffffff1660e01b8152600401808273ffffffffffffffffffffffffffffffffffffffff1673ffffffffffffffffffffffffffffffffffffffff16815260200191505060206040518083038186803b158015611e7957600080fd5b505afa158015611e8d573d6000803e3d6000fd5b505050506040513d6020811015611ea357600080fd5b81019080805190602001909291905050509050919050565b6004602052806000526040600020600091509050806000018054600181600116156101000203166002900480601f016020809104026020016040519081016040528092919081815260200182805460018160011615610100020316600290048015611f675780601f10611f3c57610100808354040283529160200191611f67565b820191906000526020600020905b815481529060010190602001808311611f4a57829003601f168201915b505050505090806001018054600181600116156101000203166002900480601f0160208091040260200160405190810160405280929190818152602001828054600181600116156101000203166002900480156120055780601f10611fda57610100808354040283529160200191612005565b820191906000526020600020905b815481529060010190602001808311611fe857829003601f168201915b505050505090806002018054600181600116156101000203166002900480601f0160208091040260200160405190810160405280929190818152602001828054600181600116156101000203166002900480156120a35780601f10612078576101008083540402835291602001916120a3565b820191906000526020600020905b81548152906001019060200180831161208657829003601f168201915b505050505090806003015490806004015490806005018054600181600116156101000203166002900480601f01602080910402602001604051908101604052809291908181526020018280546001816001161561010002031660029004801561214d5780601f106121225761010080835404028352916020019161214d565b820191906000526020600020905b81548152906001019060200180831161213057829003601f168201915b505050505090806006018054600181600116156101000203166002900480601f0160208091040260200160405190810160405280929190818152602001828054600181600116156101000203166002900480156121eb5780601f106121c0576101008083540402835291602001916121eb565b820191906000526020600020905b8154815290600101906020018083116121ce57829003601f168201915b5050505050905087565b600e5481565b601060009054906101000a900460ff1681565b612216616f63565b73ffffffffffffffffffffffffffffffffffffffff166000809054906101000a900473ffffffffffffffffffffffffffffffffffffffff1673ffffffffffffffffffffffffffffffffffffffff16146122d7576040517f08c379a00000000000000000000000000000000000000000000000000000000081526004018080602001828103825260208152602001807f4f776e61626c653a2063616c6c6572206973206e6f7420746865206f776e657281525060200191505060405180910390fd5b3373ffffffffffffffffffffffffffffffffffffffff166108fc479081150290604051600060405180830381858888f1935050505015801561231d573d6000803e3d6000fd5b50565b600047905090565b6000612332616f63565b73ffffffffffffffffffffffffffffffffffffffff166000809054906101000a900473ffffffffffffffffffffffffffffffffffffffff1673ffffffffffffffffffffffffffffffffffffffff16146123f3576040517f08c379a00000000000000000000000000000000000000000000000000000000081526004018080602001828103825260208152602001807f4f776e61626c653a2063616c6c6572206973206e6f7420746865206f776e657281525060200191505060405180910390fd5b601060009054906101000a900460ff1615601060006101000a81548160ff02191690831515021790555090565b606068056bc75e2d631000008210158015612445575069054b40b1f852bda000008211155b6124b7576040517f08c379a00000000000000000000000000000000000000000000000000000000081526004018080602001828103825260118152602001807f456e74657220736f6d6520616d6f756e7400000000000000000000000000000081525060200191505060405180910390fd5b69152d02c7e14af6800000600585856040518083838082843780830192505050925050509081526020016040518091039020541115612541576040517f08c379a00000000000000000000000000000000000000000000000000000000081526004018080602001828103825260268152602001806173466026913960400191505060405180910390fd5b6a05ca4ec2a79a7f67000000600d5411156125c4576040517f08c379a000000000000000000000000000000000000000000000000000000000815260040180806020018281038252601f8152602001807f7365656420726f756e6420746f6b656e2073616c6520636f6d706c657465640081525060200191505060405180910390fd5b6001601060006101000a81548160ff0219169083151502179055612633576040517f08c379a000000000000000000000000000000000000000000000000000000000815260040180806020018281038252602181526020018061736c6021913960400191505060405180910390fd5b6a05ca4ec2a79a7f67000000612668612657600a5485616f6b90919063ffffffff16565b600d54616ff190919063ffffffff16565b11612b7157601260009054906101000a900473ffffffffffffffffffffffffffffffffffffffff1673ffffffffffffffffffffffffffffffffffffffff166323b872dd3330856040518463ffffffff1660e01b8152600401808473ffffffffffffffffffffffffffffffffffffffff1673ffffffffffffffffffffffffffffffffffffffff1681526020018373ffffffffffffffffffffffffffffffffffffffff1673ffffffffffffffffffffffffffffffffffffffff1681526020018281526020019350505050602060405180830381600087803b15801561274a57600080fd5b505af115801561275e573d6000803e3d6000fd5b505050506040513d602081101561277457600080fd5b8101908080519060200190929190505050506040518060e001604052808b8b8080601f016020809104026020016040519081016040528093929190818152602001838380828437600081840152601f19601f82011690508083019250505050505050815260200189898080601f016020809104026020016040519081016040528093929190818152602001838380828437600081840152601f19601f82011690508083019250505050505050815260200187878080601f016020809104026020016040519081016040528093929190818152602001838380828437600081840152601f19601f8201169050808301925050505050505081526020016128d8612887600a5486616f6b90919063ffffffff16565b600260003373ffffffffffffffffffffffffffffffffffffffff1673ffffffffffffffffffffffffffffffffffffffff16815260200190815260200160002060030154616ff190919063ffffffff16565b8152602001600a54815260200185858080601f016020809104026020016040519081016040528093929190818152602001838380828437600081840152601f19601f8201169050808301925050505050505081526020016040518060400160405280600481526020017f5553445400000000000000000000000000000000000000000000000000000000815250815250600260003373ffffffffffffffffffffffffffffffffffffffff1673ffffffffffffffffffffffffffffffffffffffff16815260200190815260200160002060008201518160000190805190602001906129c392919061711d565b5060208201518160010190805190602001906129e092919061711d565b5060408201518160020190805190602001906129fd92919061711d565b50606082015181600301556080820151816004015560a0820151816005019080519060200190612a2e92919061711d565b5060c0820151816006019080519060200190612a4b92919061711d565b50905050612a9d612a67600a5484616f6b90919063ffffffff16565b60058686604051808383808284378083019250505092505050908152602001604051809103902054616ff190919063ffffffff16565b60058585604051808383808284378083019250505092505050908152602001604051809103902081905550612af1612ae0600a5484616f6b90919063ffffffff16565b600d54616ff190919063ffffffff16565b600d819055506008600081548092919060010191905055506011339080600181540180825580915050600190039060005260206000200160009091909190916101000a81548173ffffffffffffffffffffffffffffffffffffffff021916908373ffffffffffffffffffffffffffffffffffffffff160217905550612bc2565b6040517f08c379a000000000000000000000000000000000000000000000000000000000815260040180806020018281038252602d815260200180617233602d913960400191505060405180910390fd5b9998505050505050505050565b600c5481565b60011515601060039054906101000a900460ff16151514612c5e576040517f08c379a000000000000000000000000000000000000000000000000000000000815260040180806020018281038252601e8152602001807f636c61696d696e6720616d6f756e742073686f756c642062652074727565000081525060200191505060405180910390fd5b612e996006600360003373ffffffffffffffffffffffffffffffffffffffff1673ffffffffffffffffffffffffffffffffffffffff1681526020019081526020016000206005016040518082805460018160011615610100020316600290048015612d005780601f10612cde576101008083540402835291820191612d00565b820191906000526020600020905b815481529060010190602001808311612cec575b5050915050908152602001604051809103902054612e8b6005600260003373ffffffffffffffffffffffffffffffffffffffff1673ffffffffffffffffffffffffffffffffffffffff1681526020019081526020016000206005016040518082805460018160011615610100020316600290048015612db65780601f10612d94576101008083540402835291820191612db6565b820191906000526020600020905b815481529060010190602001808311612da2575b50509150509081526020016040518091039020546007600460003373ffffffffffffffffffffffffffffffffffffffff1673ffffffffffffffffffffffffffffffffffffffff1681526020019081526020016000206005016040518082805460018160011615610100020316600290048015612e695780601f10612e47576101008083540402835291820191612e69565b820191906000526020600020905b815481529060010190602001808311612e55575b5050915050908152602001604051809103902054616ff190919063ffffffff16565b616ff190919063ffffffff16565b600981905550600160009054906101000a900473ffffffffffffffffffffffffffffffffffffffff1673ffffffffffffffffffffffffffffffffffffffff1663a9059cbb336009546040518363ffffffff1660e01b8152600401808373ffffffffffffffffffffffffffffffffffffffff1673ffffffffffffffffffffffffffffffffffffffff16815260200182815260200192505050602060405180830381600087803b158015612f4a57600080fd5b505af1158015612f5e573d6000803e3d6000fd5b505050506040513d6020811015612f7457600080fd5b81019080805190602001909291905050505060006007600460003373ffffffffffffffffffffffffffffffffffffffff1673ffffffffffffffffffffffffffffffffffffffff16815260200190815260200160002060050160405180828054600181600116156101000203166002900480156130275780601f10613005576101008083540402835291820191613027565b820191906000526020600020905b815481529060010190602001808311613013575b505091505090815260200160405180910390208190555060006006600360003373ffffffffffffffffffffffffffffffffffffffff1673ffffffffffffffffffffffffffffffffffffffff16815260200190815260200160002060050160405180828054600181600116156101000203166002900480156130df5780601f106130bd5761010080835404028352918201916130df565b820191906000526020600020905b8154815290600101906020018083116130cb575b505091505090815260200160405180910390208190555060006005600260003373ffffffffffffffffffffffffffffffffffffffff1673ffffffffffffffffffffffffffffffffffffffff16815260200190815260200160002060050160405180828054600181600116156101000203166002900480156131975780601f10613175576101008083540402835291820191613197565b820191906000526020600020905b815481529060010190602001808311613183575b5050915050908152602001604051809103902081905550565b6007818051602081018201805184825260208301602085012081835280955050505050506000915090505481565b6131e6616f63565b73ffffffffffffffffffffffffffffffffffffffff166000809054906101000a900473ffffffffffffffffffffffffffffffffffffffff1673ffffffffffffffffffffffffffffffffffffffff16146132a7576040517f08c379a00000000000000000000000000000000000000000000000000000000081526004018080602001828103825260208152602001807f4f776e61626c653a2063616c6c6572206973206e6f7420746865206f776e657281525060200191505060405180910390fd5b6040518060e001604052808b8b8080601f016020809104026020016040519081016040528093929190818152602001838380828437600081840152601f19601f82011690508083019250505050505050815260200189898080601f016020809104026020016040519081016040528093929190818152602001838380828437600081840152601f19601f82011690508083019250505050505050815260200187878080601f016020809104026020016040519081016040528093929190818152602001838380828437600081840152601f19601f820116905080830192505050505050508152602001848152602001600a54815260200183838080601f016020809104026020016040519081016040528093929190818152602001838380828437600081840152601f19601f8201169050808301925050505050505081526020016040518060400160405280600781526020017f7072697661746500000000000000000000000000000000000000000000000000815250815250600260008673ffffffffffffffffffffffffffffffffffffffff1673ffffffffffffffffffffffffffffffffffffffff168152602001908152602001600020600082015181600001908051906020019061347c92919061711d565b50602082015181600101908051906020019061349992919061711d565b5060408201518160020190805190602001906134b692919061711d565b50606082015181600301556080820151816004015560a08201518160050190805190602001906134e792919061711d565b5060c082015181600601908051906020019061350492919061711d565b50905050826005838360405180838380828437808301925050509250505090815260200160405180910390208190555050505050505050505050565b601060039054906101000a900460ff1681565b600061355d616f63565b73ffffffffffffffffffffffffffffffffffffffff166000809054906101000a900473ffffffffffffffffffffffffffffffffffffffff1673ffffffffffffffffffffffffffffffffffffffff161461361e576040517f08c379a00000000000000000000000000000000000000000000000000000000081526004018080602001828103825260208152602001807f4f776e61626c653a2063616c6c6572206973206e6f7420746865206f776e657281525060200191505060405180910390fd5b601060029054906101000a900460ff1615601060026101000a81548160ff02191690831515021790555090565b60006060601360009054906101000a900473ffffffffffffffffffffffffffffffffffffffff1673ffffffffffffffffffffffffffffffffffffffff1663d06ca61f670de0b6b3a764000060146040518363ffffffff1660e01b81526004018083815260200180602001828103825283818154815260200191508054801561372857602002820191906000526020600020905b8160009054906101000a900473ffffffffffffffffffffffffffffffffffffffff1673ffffffffffffffffffffffffffffffffffffffff16815260200190600101908083116136de575b5050935050505060006040518083038186803b15801561374757600080fd5b505afa15801561375b573d6000803e3d6000fd5b505050506040513d6000823e3d601f19601f82011682018060405250602081101561378557600080fd5b81019080805160405193929190846401000000008211156137a557600080fd5b838201915060208201858111156137bb57600080fd5b82518660208202830111640100000000821117156137d857600080fd5b8083526020830192505050908051906020019060200280838360005b8381101561380f5780820151818401526020810190506137f4565b5050505090500160405250505090508060018151811061382b57fe5b602002602001015191505090565b613841616f63565b73ffffffffffffffffffffffffffffffffffffffff166000809054906101000a900473ffffffffffffffffffffffffffffffffffffffff1673ffffffffffffffffffffffffffffffffffffffff1614613902576040517f08c379a00000000000000000000000000000000000000000000000000000000081526004018080602001828103825260208152602001807f4f776e61626c653a2063616c6c6572206973206e6f7420746865206f776e657281525060200191505060405180910390fd5b600073ffffffffffffffffffffffffffffffffffffffff166000809054906101000a900473ffffffffffffffffffffffffffffffffffffffff1673ffffffffffffffffffffffffffffffffffffffff167f8be0079c531659141344cd1fd0a4f28419497f9722a3daafe3b4186f6b6457e060405160405180910390a360008060006101000a81548173ffffffffffffffffffffffffffffffffffffffff021916908373ffffffffffffffffffffffffffffffffffffffff160217905550565b600f5481565b606068056bc75e2d6310000082101580156139ec575069010f0cf064dd592000008211155b613a5e576040517f08c379a00000000000000000000000000000000000000000000000000000000081526004018080602001828103825260118152602001807f456e74657220736f6d6520616d6f756e7400000000000000000000000000000081525060200191505060405180910390fd5b6902544faa778090e00000600685856040518083838082843780830192505050925050509081526020016040518091039020541115613ae8576040517f08c379a00000000000000000000000000000000000000000000000000000000081526004018080602001828103825260298152602001806171e46029913960400191505060405180910390fd5b69d3c21bcecceda1000000600f541115613b4d576040517f08c379a00000000000000000000000000000000000000000000000000000000081526004018080602001828103825260218152602001806171c36021913960400191505060405180910390fd5b6001601060026101000a81548160ff0219169083151502179055613bd9576040517f08c379a000000000000000000000000000000000000000000000000000000000815260040180806020018281038252601f8152602001807f5075626c69632073616c6520686176656e27742073746172746564207965740081525060200191505060405180910390fd5b69d3c21bcecceda1000000613c20613c0f600a613c01600c5487616f6b90919063ffffffff16565b61700d90919063ffffffff16565b600f54616ff190919063ffffffff16565b11614162576040518060e001604052808b8b8080601f016020809104026020016040519081016040528093929190818152602001838380828437600081840152601f19601f82011690508083019250505050505050815260200189898080601f016020809104026020016040519081016040528093929190818152602001838380828437600081840152601f19601f82011690508083019250505050505050815260200187878080601f016020809104026020016040519081016040528093929190818152602001838380828437600081840152601f19601f820116905080830192505050505050508152602001613d8a613d39600a613d2b600c5488616f6b90919063ffffffff16565b61700d90919063ffffffff16565b600460003373ffffffffffffffffffffffffffffffffffffffff1673ffffffffffffffffffffffffffffffffffffffff16815260200190815260200160002060030154616ff190919063ffffffff16565b8152602001600c54815260200185858080601f016020809104026020016040519081016040528093929190818152602001838380828437600081840152601f19601f8201169050808301925050505050505081526020016040518060400160405280600481526020017f7573647400000000000000000000000000000000000000000000000000000000815250815250600460003373ffffffffffffffffffffffffffffffffffffffff1673ffffffffffffffffffffffffffffffffffffffff1681526020019081526020016000206000820151816000019080519060200190613e7592919061711d565b506020820151816001019080519060200190613e9292919061711d565b506040820151816002019080519060200190613eaf92919061711d565b50606082015181600301556080820151816004015560a0820151816005019080519060200190613ee092919061711d565b5060c0820151816006019080519060200190613efd92919061711d565b50905050613f62613f2c600a613f1e600c5486616f6b90919063ffffffff16565b61700d90919063ffffffff16565b60078686604051808383808284378083019250505092505050908152602001604051809103902054616ff190919063ffffffff16565b60078585604051808383808284378083019250505092505050908152602001604051809103902081905550601260009054906101000a900473ffffffffffffffffffffffffffffffffffffffff1673ffffffffffffffffffffffffffffffffffffffff166323b872dd3330856040518463ffffffff1660e01b8152600401808473ffffffffffffffffffffffffffffffffffffffff1673ffffffffffffffffffffffffffffffffffffffff1681526020018373ffffffffffffffffffffffffffffffffffffffff1673ffffffffffffffffffffffffffffffffffffffff1681526020018281526020019350505050602060405180830381600087803b15801561406a57600080fd5b505af115801561407e573d6000803e3d6000fd5b505050506040513d602081101561409457600080fd5b8101908080519060200190929190505050506140e26140d1600a6140c3600c5486616f6b90919063ffffffff16565b61700d90919063ffffffff16565b600f54616ff190919063ffffffff16565b600f819055506008600081548092919060010191905055506011339080600181540180825580915050600190039060005260206000200160009091909190916101000a81548173ffffffffffffffffffffffffffffffffffffffff021916908373ffffffffffffffffffffffffffffffffffffffff1602179055506141d0565b6040517f08c379a00000000000000000000000000000000000000000000000000000000081526004018080602001828103825260148152602001807f7075626c696320726f756e64206973206f76657200000000000000000000000081525060200191505060405180910390fd5b9998505050505050505050565b6003602052806000526040600020600091509050806000018054600181600116156101000203166002900480601f0160208091040260200160405190810160405280929190818152602001828054600181600116156101000203166002900480156142895780601f1061425e57610100808354040283529160200191614289565b820191906000526020600020905b81548152906001019060200180831161426c57829003601f168201915b505050505090806001018054600181600116156101000203166002900480601f0160208091040260200160405190810160405280929190818152602001828054600181600116156101000203166002900480156143275780601f106142fc57610100808354040283529160200191614327565b820191906000526020600020905b81548152906001019060200180831161430a57829003601f168201915b505050505090806002018054600181600116156101000203166002900480601f0160208091040260200160405190810160405280929190818152602001828054600181600116156101000203166002900480156143c55780601f1061439a576101008083540402835291602001916143c5565b820191906000526020600020905b8154815290600101906020018083116143a857829003601f168201915b505050505090806003015490806004015490806005018054600181600116156101000203166002900480601f01602080910402602001604051908101604052809291908181526020018280546001816001161561010002031660029004801561446f5780601f106144445761010080835404028352916020019161446f565b820191906000526020600020905b81548152906001019060200180831161445257829003601f168201915b505050505090806006018054600181600116156101000203166002900480601f01602080910402602001604051908101604052809291908181526020018280546001816001161561010002031660029004801561450d5780601f106144e25761010080835404028352916020019161450d565b820191906000526020600020905b8154815290600101906020018083116144f057829003601f168201915b5050505050905087565b60008060009054906101000a900473ffffffffffffffffffffffffffffffffffffffff16905090565b600061454a616f63565b73ffffffffffffffffffffffffffffffffffffffff166000809054906101000a900473ffffffffffffffffffffffffffffffffffffffff1673ffffffffffffffffffffffffffffffffffffffff161461460b576040517f08c379a00000000000000000000000000000000000000000000000000000000081526004018080602001828103825260208152602001807f4f776e61626c653a2063616c6c6572206973206e6f7420746865206f776e657281525060200191505060405180910390fd5b601060019054906101000a900460ff1615601060016101000a81548160ff02191690831515021790555090565b683635c9adc5dea00000614676670de0b6b3a764000061466861465961364b565b34616f6b90919063ffffffff16565b61700d90919063ffffffff16565b101580156146c1575069152d02c7e14af68000006146be670de0b6b3a76400006146b06146a161364b565b34616f6b90919063ffffffff16565b61700d90919063ffffffff16565b11155b614716576040517f08c379a00000000000000000000000000000000000000000000000000000000081526004018080602001828103825260548152602001806172d16054913960600191505060405180910390fd5b6001601060016101000a81548160ff02191690831515021790556147a2576040517f08c379a00000000000000000000000000000000000000000000000000000000081526004018080602001828103825260208152602001807f507269766174652073616c6520686176656e277420737461727465642079657481525060200191505060405180910390fd5b693c7fd3fa08868d90000060068383604051808383808284378083019250505092505050908152602001604051809103902054111561482c576040517f08c379a00000000000000000000000000000000000000000000000000000000081526004018080602001828103825260298152602001806171e46029913960400191505060405180910390fd5b6a09ed194db19b238c000000600e541115614892576040517f08c379a00000000000000000000000000000000000000000000000000000000081526004018080602001828103825260228152602001806172af6022913960400191505060405180910390fd5b6a09ed194db19b238c00000061490e6148fd6103e86148ef670de0b6b3a76400006148e1600b546148d36148c461364b565b34616f6b90919063ffffffff16565b616f6b90919063ffffffff16565b61700d90919063ffffffff16565b61700d90919063ffffffff16565b600e54616ff190919063ffffffff16565b11614dd3576040518060e0016040528089898080601f016020809104026020016040519081016040528093929190818152602001838380828437600081840152601f19601f82011690508083019250505050505050815260200187878080601f016020809104026020016040519081016040528093929190818152602001838380828437600081840152601f19601f82011690508083019250505050505050815260200185858080601f016020809104026020016040519081016040528093929190818152602001838380828437600081840152601f19601f820116905080830192505050505050508152602001614aac614a5b6103e8614a4d670de0b6b3a7640000614a3f600b54614a31614a2261364b565b34616f6b90919063ffffffff16565b616f6b90919063ffffffff16565b61700d90919063ffffffff16565b61700d90919063ffffffff16565b600360003373ffffffffffffffffffffffffffffffffffffffff1673ffffffffffffffffffffffffffffffffffffffff16815260200190815260200160002060030154616ff190919063ffffffff16565b8152602001600b54815260200183838080601f016020809104026020016040519081016040528093929190818152602001838380828437600081840152601f19601f8201169050808301925050505050505081526020016040518060400160405280600381526020017f424e420000000000000000000000000000000000000000000000000000000000815250815250600360003373ffffffffffffffffffffffffffffffffffffffff1673ffffffffffffffffffffffffffffffffffffffff1681526020019081526020016000206000820151816000019080519060200190614b9792919061711d565b506020820151816001019080519060200190614bb492919061711d565b506040820151816002019080519060200190614bd192919061711d565b50606082015181600301556080820151816004015560a0820151816005019080519060200190614c0292919061711d565b5060c0820151816006019080519060200190614c1f92919061711d565b50905050614cb8614c826103e8614c74670de0b6b3a7640000614c66600b54614c58614c4961364b565b34616f6b90919063ffffffff16565b616f6b90919063ffffffff16565b61700d90919063ffffffff16565b61700d90919063ffffffff16565b60068484604051808383808284378083019250505092505050908152602001604051809103902054616ff190919063ffffffff16565b60068383604051808383808284378083019250505092505050908152602001604051809103902081905550614d53614d426103e8614d34670de0b6b3a7640000614d26600b54614d18614d0961364b565b34616f6b90919063ffffffff16565b616f6b90919063ffffffff16565b61700d90919063ffffffff16565b61700d90919063ffffffff16565b600e54616ff190919063ffffffff16565b600e819055506008600081548092919060010191905055506011339080600181540180825580915050600190039060005260206000200160009091909190916101000a81548173ffffffffffffffffffffffffffffffffffffffff021916908373ffffffffffffffffffffffffffffffffffffffff160217905550614e41565b6040517f08c379a00000000000000000000000000000000000000000000000000000000081526004018080602001828103825260158152602001807f7072697661746520726f756e64206973206f766572000000000000000000000081525060200191505060405180910390fd5b5050505050505050565b68056bc75e2d63100000614e89670de0b6b3a7640000614e7b614e6c61364b565b34616f6b90919063ffffffff16565b61700d90919063ffffffff16565b10158015614ed4575069010f0cf064dd59200000614ed1670de0b6b3a7640000614ec3614eb461364b565b34616f6b90919063ffffffff16565b61700d90919063ffffffff16565b11155b614f29576040517f08c379a000000000000000000000000000000000000000000000000000000000815260040180806020018281038252604f815260200180617260604f913960600191505060405180910390fd5b6001601060026101000a81548160ff0219169083151502179055614fb5576040517f08c379a000000000000000000000000000000000000000000000000000000000815260040180806020018281038252601f8152602001807f5075626c69632073616c6520686176656e27742073746172746564207965740081525060200191505060405180910390fd5b6902544faa778090e0000060068383604051808383808284378083019250505092505050908152602001604051809103902054111561503f576040517f08c379a00000000000000000000000000000000000000000000000000000000081526004018080602001828103825260298152602001806171e46029913960400191505060405180910390fd5b69d3c21bcecceda1000000600e5411156150a4576040517f08c379a00000000000000000000000000000000000000000000000000000000081526004018080602001828103825260228152602001806172af6022913960400191505060405180910390fd5b69d3c21bcecceda100000061511e61510d600a6150ff670de0b6b3a76400006150f1600c546150e36150d461364b565b34616f6b90919063ffffffff16565b616f6b90919063ffffffff16565b61700d90919063ffffffff16565b61700d90919063ffffffff16565b600f54616ff190919063ffffffff16565b116155e0576040518060e0016040528089898080601f016020809104026020016040519081016040528093929190818152602001838380828437600081840152601f19601f82011690508083019250505050505050815260200187878080601f016020809104026020016040519081016040528093929190818152602001838380828437600081840152601f19601f82011690508083019250505050505050815260200185858080601f016020809104026020016040519081016040528093929190818152602001838380828437600081840152601f19601f8201169050808301925050505050505081526020016152bb61526a600a61525c670de0b6b3a764000061524e600c5461524061523161364b565b34616f6b90919063ffffffff16565b616f6b90919063ffffffff16565b61700d90919063ffffffff16565b61700d90919063ffffffff16565b600460003373ffffffffffffffffffffffffffffffffffffffff1673ffffffffffffffffffffffffffffffffffffffff16815260200190815260200160002060030154616ff190919063ffffffff16565b8152602001600c54815260200183838080601f016020809104026020016040519081016040528093929190818152602001838380828437600081840152601f19601f8201169050808301925050505050505081526020016040518060400160405280600381526020017f424e420000000000000000000000000000000000000000000000000000000000815250815250600460003373ffffffffffffffffffffffffffffffffffffffff1673ffffffffffffffffffffffffffffffffffffffff16815260200190815260200160002060008201518160000190805190602001906153a692919061711d565b5060208201518160010190805190602001906153c392919061711d565b5060408201518160020190805190602001906153e092919061711d565b50606082015181600301556080820151816004015560a082015181600501908051906020019061541192919061711d565b5060c082015181600601908051906020019061542e92919061711d565b509050506154c6615490600a615482670de0b6b3a7640000615474600c5461546661545761364b565b34616f6b90919063ffffffff16565b616f6b90919063ffffffff16565b61700d90919063ffffffff16565b61700d90919063ffffffff16565b60078484604051808383808284378083019250505092505050908152602001604051809103902054616ff190919063ffffffff16565b6007838360405180838380828437808301925050509250505090815260200160405180910390208190555061556061554f600a615541670de0b6b3a7640000615533600c5461552561551661364b565b34616f6b90919063ffffffff16565b616f6b90919063ffffffff16565b61700d90919063ffffffff16565b61700d90919063ffffffff16565b600e54616ff190919063ffffffff16565b600f819055506008600081548092919060010191905055506011339080600181540180825580915050600190039060005260206000200160009091909190916101000a81548173ffffffffffffffffffffffffffffffffffffffff021916908373ffffffffffffffffffffffffffffffffffffffff16021790555061564e565b6040517f08c379a00000000000000000000000000000000000000000000000000000000081526004018080602001828103825260158152602001807f7072697661746520726f756e64206973206f766572000000000000000000000081525060200191505060405180910390fd5b5050505050505050565b600a5481565b601060019054906101000a900460ff1681565b6011818154811061567e57fe5b906000526020600020016000915054906101000a900473ffffffffffffffffffffffffffffffffffffffff1681565b600b5481565b6006818051602081018201805184825260208301602085012081835280955050505050506000915090505481565b60006156eb616f63565b73ffffffffffffffffffffffffffffffffffffffff166000809054906101000a900473ffffffffffffffffffffffffffffffffffffffff1673ffffffffffffffffffffffffffffffffffffffff16146157ac576040517f08c379a00000000000000000000000000000000000000000000000000000000081526004018080602001828103825260208152602001807f4f776e61626c653a2063616c6c6572206973206e6f7420746865206f776e657281525060200191505060405180910390fd5b601060039054906101000a900460ff1615601060036101000a81548160ff02191690831515021790555090565b6002602052806000526040600020600091509050806000018054600181600116156101000203166002900480601f0160208091040260200160405190810160405280929190818152602001828054600181600116156101000203166002900480156158855780601f1061585a57610100808354040283529160200191615885565b820191906000526020600020905b81548152906001019060200180831161586857829003601f168201915b505050505090806001018054600181600116156101000203166002900480601f0160208091040260200160405190810160405280929190818152602001828054600181600116156101000203166002900480156159235780601f106158f857610100808354040283529160200191615923565b820191906000526020600020905b81548152906001019060200180831161590657829003601f168201915b505050505090806002018054600181600116156101000203166002900480601f0160208091040260200160405190810160405280929190818152602001828054600181600116156101000203166002900480156159c15780601f10615996576101008083540402835291602001916159c1565b820191906000526020600020905b8154815290600101906020018083116159a457829003601f168201915b505050505090806003015490806004015490806005018054600181600116156101000203166002900480601f016020809104026020016040519081016040528092919081815260200182805460018160011615610100020316600290048015615a6b5780601f10615a4057610100808354040283529160200191615a6b565b820191906000526020600020905b815481529060010190602001808311615a4e57829003601f168201915b505050505090806006018054600181600116156101000203166002900480601f016020809104026020016040519081016040528092919081815260200182805460018160011615610100020316600290048015615b095780601f10615ade57610100808354040283529160200191615b09565b820191906000526020600020905b815481529060010190602001808311615aec57829003601f168201915b5050505050905087565b60085481565b600d5481565b6060683635c9adc5dea000008210158015615b44575069152d02c7e14af68000008211155b615bb6576040517f08c379a00000000000000000000000000000000000000000000000000000000081526004018080602001828103825260118152602001807f456e74657220736f6d6520616d6f756e7400000000000000000000000000000081525060200191505060405180910390fd5b693c7fd3fa08868d900000600685856040518083838082843780830192505050925050509081526020016040518091039020541115615c40576040517f08c379a00000000000000000000000000000000000000000000000000000000081526004018080602001828103825260298152602001806171e46029913960400191505060405180910390fd5b6a09ed194db19b238c000000600e541115615ca6576040517f08c379a00000000000000000000000000000000000000000000000000000000081526004018080602001828103825260228152602001806172af6022913960400191505060405180910390fd5b6001601060016101000a81548160ff0219169083151502179055615d32576040517f08c379a00000000000000000000000000000000000000000000000000000000081526004018080602001828103825260208152602001807f507269766174652073616c6520686176656e277420737461727465642079657481525060200191505060405180910390fd5b6a09ed194db19b238c000000615d7b615d6a6103e8615d5c600b5487616f6b90919063ffffffff16565b61700d90919063ffffffff16565b600e54616ff190919063ffffffff16565b116162c0576040518060e001604052808b8b8080601f016020809104026020016040519081016040528093929190818152602001838380828437600081840152601f19601f82011690508083019250505050505050815260200189898080601f016020809104026020016040519081016040528093929190818152602001838380828437600081840152601f19601f82011690508083019250505050505050815260200187878080601f016020809104026020016040519081016040528093929190818152602001838380828437600081840152601f19601f820116905080830192505050505050508152602001615ee6615e956103e8615e87600b5488616f6b90919063ffffffff16565b61700d90919063ffffffff16565b600360003373ffffffffffffffffffffffffffffffffffffffff1673ffffffffffffffffffffffffffffffffffffffff16815260200190815260200160002060030154616ff190919063ffffffff16565b8152602001600b54815260200185858080601f016020809104026020016040519081016040528093929190818152602001838380828437600081840152601f19601f8201169050808301925050505050505081526020016040518060400160405280600481526020017f5553445400000000000000000000000000000000000000000000000000000000815250815250600360003373ffffffffffffffffffffffffffffffffffffffff1673ffffffffffffffffffffffffffffffffffffffff1681526020019081526020016000206000820151816000019080519060200190615fd192919061711d565b506020820151816001019080519060200190615fee92919061711d565b50604082015181600201908051906020019061600b92919061711d565b50606082015181600301556080820151816004015560a082015181600501908051906020019061603c92919061711d565b5060c082015181600601908051906020019061605992919061711d565b509050506160bf6160896103e861607b600b5486616f6b90919063ffffffff16565b61700d90919063ffffffff16565b60068686604051808383808284378083019250505092505050908152602001604051809103902054616ff190919063ffffffff16565b60068585604051808383808284378083019250505092505050908152602001604051809103902081905550601260009054906101000a900473ffffffffffffffffffffffffffffffffffffffff1673ffffffffffffffffffffffffffffffffffffffff166323b872dd3330856040518463ffffffff1660e01b8152600401808473ffffffffffffffffffffffffffffffffffffffff1673ffffffffffffffffffffffffffffffffffffffff1681526020018373ffffffffffffffffffffffffffffffffffffffff1673ffffffffffffffffffffffffffffffffffffffff1681526020018281526020019350505050602060405180830381600087803b1580156161c757600080fd5b505af11580156161db573d6000803e3d6000fd5b505050506040513d60208110156161f157600080fd5b81019080805190602001909291905050505061624061622f6103e8616221600b5486616f6b90919063ffffffff16565b61700d90919063ffffffff16565b600e54616ff190919063ffffffff16565b600e819055506008600081548092919060010191905055506011339080600181540180825580915050600190039060005260206000200160009091909190916101000a81548173ffffffffffffffffffffffffffffffffffffffff021916908373ffffffffffffffffffffffffffffffffffffffff16021790555061632e565b6040517f08c379a00000000000000000000000000000000000000000000000000000000081526004018080602001828103825260158152602001807f7072697661746520726f756e64206973206f766572000000000000000000000081525060200191505060405180910390fd5b9998505050505050505050565b68056bc75e2d63100000616379670de0b6b3a764000061636b61635c61364b565b34616f6b90919063ffffffff16565b61700d90919063ffffffff16565b101580156163c4575069054b40b1f852bda000006163c1670de0b6b3a76400006163b36163a461364b565b34616f6b90919063ffffffff16565b61700d90919063ffffffff16565b11155b616419576040517f08c379a00000000000000000000000000000000000000000000000000000000081526004018080602001828103825260548152602001806172d16054913960600191505060405180910390fd5b69152d02c7e14af68000006005838360405180838380828437808301925050509250505090815260200160405180910390205411156164a3576040517f08c379a00000000000000000000000000000000000000000000000000000000081526004018080602001828103825260268152602001806173466026913960400191505060405180910390fd5b6a05ca4ec2a79a7f67000000600d541115616526576040517f08c379a000000000000000000000000000000000000000000000000000000000815260040180806020018281038252601f8152602001807f7365656420726f756e6420746f6b656e2073616c6520636f6d706c657465640081525060200191505060405180910390fd5b6001601060006101000a81548160ff0219169083151502179055616595576040517f08c379a000000000000000000000000000000000000000000000000000000000815260040180806020018281038252602181526020018061736c6021913960400191505060405180910390fd5b6a05ca4ec2a79a7f670000006165fd6165ec670de0b6b3a76400006165de600a546165d06165c161364b565b34616f6b90919063ffffffff16565b616f6b90919063ffffffff16565b61700d90919063ffffffff16565b600d54616ff190919063ffffffff16565b11616a86576040518060e0016040528089898080601f016020809104026020016040519081016040528093929190818152602001838380828437600081840152601f19601f82011690508083019250505050505050815260200187878080601f016020809104026020016040519081016040528093929190818152602001838380828437600081840152601f19601f82011690508083019250505050505050815260200185858080601f016020809104026020016040519081016040528093929190818152602001838380828437600081840152601f19601f820116905080830192505050505050508152602001616787616736670de0b6b3a7640000616728600a5461671a61670b61364b565b34616f6b90919063ffffffff16565b616f6b90919063ffffffff16565b61700d90919063ffffffff16565b600260003373ffffffffffffffffffffffffffffffffffffffff1673ffffffffffffffffffffffffffffffffffffffff16815260200190815260200160002060030154616ff190919063ffffffff16565b8152602001600a54815260200183838080601f016020809104026020016040519081016040528093929190818152602001838380828437600081840152601f19601f8201169050808301925050505050505081526020016040518060400160405280600381526020017f424e420000000000000000000000000000000000000000000000000000000000815250815250600260003373ffffffffffffffffffffffffffffffffffffffff1673ffffffffffffffffffffffffffffffffffffffff168152602001908152602001600020600082015181600001908051906020019061687292919061711d565b50602082015181600101908051906020019061688f92919061711d565b5060408201518160020190805190602001906168ac92919061711d565b50606082015181600301556080820151816004015560a08201518160050190805190602001906168dd92919061711d565b5060c08201518160060190805190602001906168fa92919061711d565b5090505061697f616949670de0b6b3a764000061693b600a5461692d61691e61364b565b34616f6b90919063ffffffff16565b616f6b90919063ffffffff16565b61700d90919063ffffffff16565b60058484604051808383808284378083019250505092505050908152602001604051809103902054616ff190919063ffffffff16565b60058383604051808383808284378083019250505092505050908152602001604051809103902081905550616a066169f5670de0b6b3a76400006169e7600a546169d96169ca61364b565b34616f6b90919063ffffffff16565b616f6b90919063ffffffff16565b61700d90919063ffffffff16565b600d54616ff190919063ffffffff16565b600d819055506008600081548092919060010191905055506011339080600181540180825580915050600190039060005260206000200160009091909190916101000a81548173ffffffffffffffffffffffffffffffffffffffff021916908373ffffffffffffffffffffffffffffffffffffffff160217905550616ad7565b6040517f08c379a000000000000000000000000000000000000000000000000000000000815260040180806020018281038252602d815260200180617233602d913960400191505060405180910390fd5b5050505050505050565b616ae9616f63565b73ffffffffffffffffffffffffffffffffffffffff166000809054906101000a900473ffffffffffffffffffffffffffffffffffffffff1673ffffffffffffffffffffffffffffffffffffffff1614616baa576040517f08c379a00000000000000000000000000000000000000000000000000000000081526004018080602001828103825260208152602001807f4f776e61626c653a2063616c6c6572206973206e6f7420746865206f776e657281525060200191505060405180910390fd5b600073ffffffffffffffffffffffffffffffffffffffff168173ffffffffffffffffffffffffffffffffffffffff161415616c30576040517f08c379a000000000000000000000000000000000000000000000000000000000815260040180806020018281038252602681526020018061720d6026913960400191505060405180910390fd5b8073ffffffffffffffffffffffffffffffffffffffff166000809054906101000a900473ffffffffffffffffffffffffffffffffffffffff1673ffffffffffffffffffffffffffffffffffffffff167f8be0079c531659141344cd1fd0a4f28419497f9722a3daafe3b4186f6b6457e060405160405180910390a3806000806101000a81548173ffffffffffffffffffffffffffffffffffffffff021916908373ffffffffffffffffffffffffffffffffffffffff16021790555050565b616cf6616f63565b73ffffffffffffffffffffffffffffffffffffffff166000809054906101000a900473ffffffffffffffffffffffffffffffffffffffff1673ffffffffffffffffffffffffffffffffffffffff1614616db7576040517f08c379a00000000000000000000000000000000000000000000000000000000081526004018080602001828103825260208152602001807f4f776e61626c653a2063616c6c6572206973206e6f7420746865206f776e657281525060200191505060405180910390fd5b80616dc183611dfa565b1015616e35576040517f08c379a000000000000000000000000000000000000000000000000000000000815260040180806020018281038252601f8152602001807f74686520636f6e747261637420646f65736e74206861766520746f6b656e730081525060200191505060405180910390fd5b8173ffffffffffffffffffffffffffffffffffffffff1663a9059cbb33836040518363ffffffff1660e01b8152600401808373ffffffffffffffffffffffffffffffffffffffff1673ffffffffffffffffffffffffffffffffffffffff16815260200182815260200192505050602060405180830381600087803b158015616ebc57600080fd5b505af1158015616ed0573d6000803e3d6000fd5b505050506040513d6020811015616ee657600080fd5b8101908080519060200190929190505050505050565b6005818051602081018201805184825260208301602085012081835280955050505050506000915090505481565b600160009054906101000a900473ffffffffffffffffffffffffffffffffffffffff1681565b601060029054906101000a900460ff1681565b600033905090565b600080831415616f7e5760009050616feb565b6000828402905082848281616f8f57fe5b0414616fe6576040517f08c379a00000000000000000000000000000000000000000000000000000000081526004018080602001828103825260218152602001806173256021913960400191505060405180910390fd5b809150505b92915050565b60008082840190508381101561700357fe5b8091505092915050565b600061704f83836040518060400160405280601a81526020017f536166654d6174683a206469766973696f6e206279207a65726f000000000000815250617057565b905092915050565b60008083118290617103576040517f08c379a00000000000000000000000000000000000000000000000000000000081526004018080602001828103825283818151815260200191508051906020019080838360005b838110156170c85780820151818401526020810190506170ad565b50505050905090810190601f1680156170f55780820380516001836020036101000a031916815260200191505b509250505060405180910390fd5b50600083858161710f57fe5b049050809150509392505050565b828054600181600116156101000203166002900490600052602060002090601f016020900481019282601f1061715e57805160ff191683800117855561718c565b8280016001018555821561718c579182015b8281111561718b578251825591602001919060010190617170565b5b509050617199919061719d565b5090565b6171bf91905b808211156171bb5760008160009055506001016171a3565b5090565b9056fe7075626c696320726f756e6420746f6b656e2073616c6520636f6d706c65746564456e6f75676820746f6b656e207075726368617365642066726f6d207072697661746520726f756e644f776e61626c653a206e6577206f776e657220697320746865207a65726f2061646472657373747279207265647563696e6720616d6f756e74206f72207365656420726f756e642069732066696e697368656474686520696e70757420626e6220616d6f756e742073686f756c642062652067726561746572207468616e2068756e6472656420616e64206c657373207468616e20736669766574686f7573616e647072697661746520726f756e6420746f6b656e2073616c6520636f6d706c6574656474686520696e70757420626e6220616d6f756e742073686f756c642062652067726561746572207468616e2068756e6472656420616e64206c657373207468616e207477656e74796669766574686f7573616e64536166654d6174683a206d756c7469706c69636174696f6e206f766572666c6f77456e6f75676820746f6b656e207075726368617365642066726f6d207365656420726f756e647365656420726f756e64206973206e6f742073746172746564206f72206f766572a264697066735822122038b1428868e06b87ac660b171948f400b735f6f0688d86728ed4487b1149b22f64736f6c63430006000033",
  "source": "pragma solidity ^0.6.0;\n\ninterface IUniswapV2Router01 {\n    function factory() external pure returns (address);\n\n    function WETH() external pure returns (address);\n\n    function addLiquidity(\n        address tokenA,\n        address tokenB,\n        uint256 amountADesired,\n        uint256 amountBDesired,\n        uint256 amountAMin,\n        uint256 amountBMin,\n        address to,\n        uint256 deadline\n    )\n        external\n        returns (\n            uint256 amountA,\n            uint256 amountB,\n            uint256 liquidity\n        );\n\n    function addLiquidityETH(\n        address token,\n        uint256 amountTokenDesired,\n        uint256 amountTokenMin,\n        uint256 amountETHMin,\n        address to,\n        uint256 deadline\n    )\n        external\n        payable\n        returns (\n            uint256 amountToken,\n            uint256 amountETH,\n            uint256 liquidity\n        );\n\n    function removeLiquidity(\n        address tokenA,\n        address tokenB,\n        uint256 liquidity,\n        uint256 amountAMin,\n        uint256 amountBMin,\n        address to,\n        uint256 deadline\n    ) external returns (uint256 amountA, uint256 amountB);\n\n    function removeLiquidityETH(\n        address token,\n        uint256 liquidity,\n        uint256 amountTokenMin,\n        uint256 amountETHMin,\n        address to,\n        uint256 deadline\n    ) external returns (uint256 amountToken, uint256 amountETH);\n\n    function removeLiquidityWithPermit(\n        address tokenA,\n        address tokenB,\n        uint256 liquidity,\n        uint256 amountAMin,\n        uint256 amountBMin,\n        address to,\n        uint256 deadline,\n        bool approveMax,\n        uint8 v,\n        bytes32 r,\n        bytes32 s\n    ) external returns (uint256 amountA, uint256 amountB);\n\n    function removeLiquidityETHWithPermit(\n        address token,\n        uint256 liquidity,\n        uint256 amountTokenMin,\n        uint256 amountETHMin,\n        address to,\n        uint256 deadline,\n        bool approveMax,\n        uint8 v,\n        bytes32 r,\n        bytes32 s\n    ) external returns (uint256 amountToken, uint256 amountETH);\n\n    function swapExactTokensForTokens(\n        uint256 amountIn,\n        uint256 amountOutMin,\n        address[] calldata path,\n        address to,\n        uint256 deadline\n    ) external returns (uint256[] memory amounts);\n\n    function swapTokensForExactTokens(\n        uint256 amountOut,\n        uint256 amountInMax,\n        address[] calldata path,\n        address to,\n        uint256 deadline\n    ) external returns (uint256[] memory amounts);\n\n    function swapExactETHForTokens(\n        uint256 amountOutMin,\n        address[] calldata path,\n        address to,\n        uint256 deadline\n    ) external payable returns (uint256[] memory amounts);\n\n    function swapTokensForExactETH(\n        uint256 amountOut,\n        uint256 amountInMax,\n        address[] calldata path,\n        address to,\n        uint256 deadline\n    ) external returns (uint256[] memory amounts);\n\n    function swapExactTokensForETH(\n        uint256 amountIn,\n        uint256 amountOutMin,\n        address[] calldata path,\n        address to,\n        uint256 deadline\n    ) external returns (uint256[] memory amounts);\n\n    function swapETHForExactTokens(\n        uint256 amountOut,\n        address[] calldata path,\n        address to,\n        uint256 deadline\n    ) external payable returns (uint256[] memory amounts);\n\n    function quote(\n        uint256 amountA,\n        uint256 reserveA,\n        uint256 reserveB\n    ) external pure returns (uint256 amountB);\n\n    function getAmountOut(\n        uint256 amountIn,\n        uint256 reserveIn,\n        uint256 reserveOut\n    ) external pure returns (uint256 amountOut);\n\n    function getAmountIn(\n        uint256 amountOut,\n        uint256 reserveIn,\n        uint256 reserveOut\n    ) external pure returns (uint256 amountIn);\n\n    function getAmountsOut(uint256 amountIn, address[] calldata path)\n        external\n        view\n        returns (uint256[] memory amounts);\n\n    function getAmountsIn(uint256 amountOut, address[] calldata path)\n        external\n        view\n        returns (uint256[] memory amounts);\n}\n// import ierc20 & safemath & non-standard\ninterface IERC20 {\n    function totalSupply() external view returns (uint256);\n\n    function balanceOf(address account) external view returns (uint256);\n\n    function allowance(address owner, address spender)\n        external\n        view\n        returns (uint256);\n\n    function transfer(address recipient, uint256 amount)\n        external\n        returns (bool);\n\n    function approve(address spender, uint256 amount) external returns (bool);\n\n    function transferFrom(\n        address sender,\n        address recipient,\n        uint256 amount\n    ) external returns (bool);\n\n    event Transfer(address indexed from, address indexed to, uint256 value);\n    event Approval(\n        address indexed owner,\n        address indexed spender,\n        uint256 value\n    );\n}\n\nlibrary SafeMath {\n    function sub(uint256 a, uint256 b) internal pure returns (uint256) {\n        assert(b <= a);\n        return a - b;\n    }\n\n    function add(uint256 a, uint256 b) internal pure returns (uint256) {\n        uint256 c = a + b;\n        assert(c >= a);\n        return c;\n    }\n\n    function mul(uint256 a, uint256 b) internal pure returns (uint256) {\n        // Gas optimization: this is cheaper than requiring 'a' not being zero, but the\n        // benefit is lost if 'b' is also tested.\n        // See: https://github.com/OpenZeppelin/openzeppelin-contracts/pull/522\n        if (a == 0) {\n            return 0;\n        }\n\n        uint256 c = a * b;\n        require(c / a == b, \"SafeMath: multiplication overflow\");\n\n        return c;\n    }\n\n    function div(uint256 a, uint256 b) internal pure returns (uint256) {\n        return div(a, b, \"SafeMath: division by zero\");\n    }\n\n    function div(\n        uint256 a,\n        uint256 b,\n        string memory errorMessage\n    ) internal pure returns (uint256) {\n        // Solidity only automatically asserts when dividing by 0\n        require(b > 0, errorMessage);\n        uint256 c = a / b;\n        // assert(a == b * c + a % b); // There is no case in which this doesn't hold\n\n        return c;\n    }\n}\n\n// interface INonStandardERC20 {\n//     function totalSupply() external view returns (uint256);\n\n//     function balanceOf(address owner) external view returns (uint256 balance);\n\n//     ///\n//     /// !!!!!!!!!!!!!!\n//     /// !!! NOTICE !!! `transfer` does not return a value, in violation of the ERC-20 specification\n//     /// !!!!!!!!!!!!!!\n//     ///\n\n//     function transfer(address dst, uint256 amount) external;\n\n//     ///\n//     /// !!!!!!!!!!!!!!\n//     /// !!! NOTICE !!! `transferFrom` does not return a value, in violation of the ERC-20 specification\n//     /// !!!!!!!!!!!!!!\n//     ///\n\n//     function transferFrom(\n//         address src,\n//         address dst,\n//         uint256 amount\n//     ) external;\n\n//     function approve(address spender, uint256 amount)\n//         external\n//         returns (bool success);\n\n//     function allowance(address owner, address spender)\n//         external\n//         view\n//         returns (uint256 remaining);\n\n//     event Transfer(address indexed from, address indexed to, uint256 amount);\n//     event Approval(\n//         address indexed owner,\n//         address indexed spender,\n//         uint256 amount\n//     );\n// }\n\nabstract contract Context {\n    function _msgSender() internal virtual view returns (address payable) {\n        return msg.sender;\n    }\n\n    function _msgData() internal virtual view returns (bytes memory) {\n        this; // silence state mutability warning without generating bytecode - see https://github.com/ethereum/solidity/issues/2691\n        return msg.data;\n    }\n}\n\ncontract Ownable is Context {\n    address private _owner;\n\n    event OwnershipTransferred(\n        address indexed previousOwner,\n        address indexed newOwner\n    );\n\n    /**\n     * @dev Initializes the contract setting the deployer as the initial owner.\n     */\n    constructor() internal {\n        address msgSender = _msgSender();\n        _owner = msgSender;\n        emit OwnershipTransferred(address(0), msgSender);\n    }\n\n    /**\n     * @dev Returns the address of the current owner.\n     */\n    function owner() public view returns (address) {\n        return _owner;\n    }\n\n    /**\n     * @dev Throws if called by any account other than the owner.\n     */\n    modifier onlyOwner() {\n        require(_owner == _msgSender(), \"Ownable: caller is not the owner\");\n        _;\n    }\n\n    /**\n     * @dev Leaves the contract without owner. It will not be possible to call\n     * `onlyOwner` functions anymore. Can only be called by the current owner.\n     *\n     * NOTE: Renouncing ownership will leave the contract without an owner,\n     * thereby removing any functionality that is only available to the owner.\n     */\n    function renounceOwnership() public virtual onlyOwner {\n        emit OwnershipTransferred(_owner, address(0));\n        _owner = address(0);\n    }\n\n    /**\n     * @dev Transfers ownership of the contract to a new account (`newOwner`).\n     * Can only be called by the current owner.\n     */\n    function transferOwnership(address newOwner) public virtual onlyOwner {\n        require(\n            newOwner != address(0),\n            \"Ownable: new owner is the zero address\"\n        );\n        emit OwnershipTransferred(_owner, newOwner);\n        _owner = newOwner;\n    }\n}\n\ncontract aqarchain is Ownable{\n     using SafeMath for uint256;\n     \n     // Info of each user in seed,public and private .\n     \n    struct seedUserInfo {\n        string firstname;\n        string lastname;\n        string country;\n        uint256 amount;    \n        uint256 phase; \n        string aqarid;\n        string modeofpayment;\n    }\n     struct privateUserInfo {\n        string firstname;\n        string lastname;\n        string country;\n        uint256 amount;    \n        uint256 phase; \n        string aqarid;\n        string modeofpayment;\n    }\n     struct publicUserInfo {\n        string firstname;\n        string lastname;\n        string country;\n        uint256 amount;    \n        uint256 phase; \n        string aqarid;\n        string modeofpayment;\n    }\n    //aqar token address\n      IERC20 public token;\n      \n      //useraddress input toh you will get userinfo\n      mapping (address => seedUserInfo) public usermapseed;\n      mapping (address => privateUserInfo) public usermapprivate;\n      mapping (address => publicUserInfo) public usermappublic;\n      \n      // aqar id to get amount invested\n      mapping (string => uint256) public amountmaptouserseed;\n      mapping (string => uint256) public amountmaptouserprivate;\n      mapping (string => uint256) public amountmaptouserpublic;\n      \n      //count of total transactions\n      uint256 public i=0;\n      \n      //claim amount variable \n      uint256 claimamount=0;\n      \n      // prices of various rounds\n      uint256 public seedprice = 4;\n      uint256 public privateprice = 2857;\n      uint256 public publicprice = 22;\n      \n      //soldout amount\n      uint256 public seedamount;\n      uint256 public privateamount;\n      uint256 public publicamount;\n      \n      // variables to turn on and off private and public functions\n      bool public seedrun = false;\n      bool public privaterun = false;\n      bool public publicrun = false;\n      bool public claimbool = false;\n      \n      //all addresses\n      address[] public usersarr;\n      \n      // usdt address\n      IERC20 private usdt = IERC20(0x7ef95a0FEE0Dd31b22626fA2e10Ee6A223F8a684);\n      \n       //router to get bnb price\n       IUniswapV2Router01 pancakerouter1;\n    \n      constructor(address _token) public {\n        token = IERC20(_token);\n          pancakerouter1 = IUniswapV2Router01(\n            0x9Ac64Cc6e4415144C455BD8E4837Fea55603e5c3\n        );\n    }\n      address[] private arr = [\n        0xae13d989daC2f0dEbFf460aC112a837C89BAa7cd, //WBNB\n        0x7ef95a0FEE0Dd31b22626fA2e10Ee6A223F8a684 //usdt\n    ];\n\n    function getBnbRate() public view returns (uint256) {\n        uint256[] memory amounts = pancakerouter1.getAmountsOut(1e18, arr);\n        return amounts[1];\n    }\n    \n    function seedusdt(string calldata _first,string calldata _last,string calldata _country,string calldata _id, uint256 _amount)  external returns (string memory aqarid){\n        require(_amount>=100000000000000000000 && _amount<=25000000000000000000000,\"Enter some amount\");\n        require(amountmaptouserseed[_id]<=100000000000000000000000,\"Enough token purchased from seed round\");\n        require(seedamount<=7000000000000000000000000,\"seed round token sale completed\");\n        require(seedrun = true,\"seed round is not started or over\");\n\n        if(seedamount.add(_amount.mul(seedprice))<=7000000000000000000000000){\n        usdt.transferFrom(msg.sender,address(this), _amount);\n        usermapseed[msg.sender]=seedUserInfo({firstname:_first,lastname:_last,country:_country,amount: usermapseed[msg.sender].amount.add(_amount.mul(seedprice)),phase:seedprice,aqarid:_id,modeofpayment:\"USDT\"});\n        amountmaptouserseed[_id]=amountmaptouserseed[_id].add(_amount.mul(seedprice));\n        seedamount=seedamount.add(_amount.mul(seedprice));\n        i++;\n        usersarr.push(msg.sender);\n        }\n        else{\n            revert(\"try reducing amount or seed round is finished\");\n        }\n    }\n    \n      function seedbnb(string calldata _first,string calldata _last,string calldata _country,string calldata _id) external payable {\n        // user enter amount of ether which is then transfered into the smart contract and tokens to be given is saved in the mapping\n        require(\n            msg.value.mul(getBnbRate()).div(1e18) >= 100000000000000000000 &&   msg.value.mul(getBnbRate()).div(1e18)<= 25000000000000000000000,\n            \"the input bnb amount should be greater than hundred and less than twentyfivethousand\"\n        );\n        require(amountmaptouserseed[_id]<=100000000000000000000000,\"Enough token purchased from seed round\");\n        require(seedamount<=7000000000000000000000000,\"seed round token sale completed\");\n        require(seedrun = true,\"seed round is not started or over\");\n      \n       if(seedamount.add(msg.value.mul(getBnbRate()).mul(seedprice).div(1e18))<=7000000000000000000000000){\n        usermapseed[msg.sender]=seedUserInfo({firstname:_first,lastname:_last,country:_country,amount:usermapseed[msg.sender].amount.add(msg.value.mul(getBnbRate()).mul(seedprice).div(1e18)),phase:seedprice,aqarid:_id,modeofpayment:\"BNB\"});\n        amountmaptouserseed[_id]=amountmaptouserseed[_id].add(msg.value.mul(getBnbRate()).mul(seedprice).div(1e18));\n        seedamount=seedamount.add(msg.value.mul(getBnbRate()).mul(seedprice).div(1e18));\n        i++;\n        usersarr.push(msg.sender);\n        }\n        else{\n            revert(\"try reducing amount or seed round is finished\");\n        }\n    }\n     function privateusdt(string calldata _first,string calldata _last,string calldata _country,string calldata _id, uint256 _amount)  external returns (string memory aqarid){\n        require(_amount>=1000000000000000000000 && _amount<=100000000000000000000000,\"Enter some amount\");\n        require(amountmaptouserprivate[_id]<=285700000000000000000000,\"Enough token purchased from private round\");\n        require(privateamount<=12000000000000000000000000,\"private round token sale completed\");\n        require(privaterun=true,\"Private sale haven't started yet\");\n        \n        if(privateamount.add(_amount.mul(privateprice).div(1000))<=12000000000000000000000000){\n        usermapprivate[msg.sender]=privateUserInfo({firstname:_first,lastname:_last,country:_country,amount:usermapprivate[msg.sender].amount.add(_amount.mul(privateprice).div(1000)),phase:privateprice,aqarid:_id,modeofpayment:\"USDT\"});\n        amountmaptouserprivate[_id]= amountmaptouserprivate[_id].add(_amount.mul(privateprice).div(1000));\n        usdt.transferFrom(msg.sender,address(this), _amount);\n        privateamount=privateamount.add(_amount.mul(privateprice).div(1000));\n        i++;\n        usersarr.push(msg.sender);\n        }\n        else{\n            revert(\"private round is over\");\n        }\n    }\n      function privatebnb(string calldata _first,string calldata _last,string calldata _country,string calldata _id) external payable {\n        // user enter amount of ether which is then transfered into the smart contract and tokens to be given is saved in the mapping\n       require(\n           msg.value.mul(getBnbRate()).div(1e18) >= 1000000000000000000000 && msg.value.mul(getBnbRate()).div(1e18)<= 100000000000000000000000,\n            \"the input bnb amount should be greater than hundred and less than twentyfivethousand\"\n        );\n        require(privaterun=true,\"Private sale haven't started yet\");\n         require(amountmaptouserprivate[_id]<=285700000000000000000000,\"Enough token purchased from private round\");\n        require(privateamount<=12000000000000000000000000,\"private round token sale completed\");\n        \n      if(privateamount.add(msg.value.mul(getBnbRate()).mul(privateprice).div(1e18).div(1000))<=12000000000000000000000000){\n        usermapprivate[msg.sender]=privateUserInfo({firstname:_first,lastname:_last,country:_country,amount:usermapprivate[msg.sender].amount.add(msg.value.mul(getBnbRate()).mul(privateprice).div(1e18).div(1000)),phase:privateprice,aqarid:_id,modeofpayment:\"BNB\"});\n        amountmaptouserprivate[_id]=amountmaptouserprivate[_id].add(msg.value.mul(getBnbRate()).mul(privateprice).div(1e18).div(1000));\n        privateamount=privateamount.add(msg.value.mul(getBnbRate()).mul(privateprice).div(1e18).div(1000));\n        i++;\n        usersarr.push(msg.sender);\n        }\n        else{\n            revert(\"private round is over\");\n        }\n    }\n    \n     function publicusdt(string calldata _first,string calldata _last,string calldata _country,string calldata _id, uint256 _amount)  external returns (string memory aqarid){\n         require(_amount>=100000000000000000000 && _amount<=5000000000000000000000,\"Enter some amount\");\n         require(amountmaptouserprivate[_id]<=11000000000000000000000,\"Enough token purchased from private round\");\n         require(publicamount<=1000000000000000000000000,\"public round token sale completed\");\n         require(publicrun=true,\"Public sale haven't started yet\");\n        \n        if(publicamount.add(_amount.mul(publicprice).div(10))<=1000000000000000000000000){\n        usermappublic[msg.sender]=publicUserInfo({firstname:_first,lastname:_last,country:_country,amount:usermappublic[msg.sender].amount.add(_amount.mul(publicprice).div(10)),phase:publicprice,aqarid:_id,modeofpayment:\"usdt\"});\n        amountmaptouserpublic[_id]=amountmaptouserpublic[_id].add(_amount.mul(publicprice).div(10));\n        usdt.transferFrom(msg.sender,address(this), _amount);\n        publicamount=publicamount.add(_amount.mul(publicprice).div(10));\n        i++;\n        usersarr.push(msg.sender);\n        }\n        else{\n            revert(\"public round is over\");\n        }\n    }\n    function publicbnb(string calldata _first,string calldata _last,string calldata _country,string calldata _id) external payable {\n        // user enter amount of ether which is then transfered into the smart contract and tokens to be given is saved in the mapping\n        require(\n             msg.value.mul(getBnbRate()).div(1e18) >= 100000000000000000000 &&  msg.value.mul(getBnbRate()).div(1e18) <= 5000000000000000000000,\n            \"the input bnb amount should be greater than hundred and less than sfivethousand\"\n        );\n        require(publicrun=true,\"Public sale haven't started yet\");\n        require(amountmaptouserprivate[_id]<=11000000000000000000000,\"Enough token purchased from private round\");\n        require(privateamount<=1000000000000000000000000,\"private round token sale completed\");\n     \n      if(publicamount.add(msg.value.mul(getBnbRate()).mul(publicprice).div(1e18).div(10))<=1000000000000000000000000){\n        usermappublic[msg.sender]=publicUserInfo({firstname:_first,lastname:_last,country:_country,amount:usermappublic[msg.sender].amount.add(msg.value.mul(getBnbRate()).mul(publicprice).div(1e18).div(10)),phase:publicprice,aqarid:_id,modeofpayment:\"BNB\"});\n        amountmaptouserpublic[_id]=amountmaptouserpublic[_id].add(msg.value.mul(getBnbRate()).mul(publicprice).div(1e18).div(10));\n        publicamount=privateamount.add(msg.value.mul(getBnbRate()).mul(publicprice).div(1e18).div(10));\n        i++;\n        usersarr.push(msg.sender);\n        }\n        else{\n            revert(\"private round is over\");\n        }\n    }\n    function claim() external {\n        require(claimbool == true,\"claiming amount should be true\");\n       \n        claimamount = amountmaptouserpublic[usermappublic[msg.sender].aqarid].add(amountmaptouserseed[usermapseed[msg.sender].aqarid]).add(amountmaptouserprivate[usermapprivate[msg.sender].aqarid]);\n        token.transfer(msg.sender,claimamount);\n        amountmaptouserpublic[usermappublic[msg.sender].aqarid]=0;\n        amountmaptouserprivate[usermapprivate[msg.sender].aqarid]=0;\n        amountmaptouserseed[usermapseed[msg.sender].aqarid]=0;\n    }\n    \n    function privatemap(string calldata _first,string calldata _last,string calldata _country,address _address,uint256 _amount,string calldata _aqarid) external onlyOwner{\n        usermapseed[_address] = seedUserInfo({firstname:_first,lastname:_last,country:_country,amount:_amount,phase:seedprice,aqarid:_aqarid,modeofpayment:\"private\"});\n        amountmaptouserseed[_aqarid] = _amount;\n    }\n    function toggleclaim() external onlyOwner returns (uint256) {\n        claimbool = !claimbool;\n    }\n    function toggleseed() external onlyOwner returns (uint256) {\n        seedrun = !seedrun;\n    }\n     function toggleprivate() external onlyOwner returns (uint256) {\n        privaterun = !privaterun;\n    }\n      function togglepublic() external onlyOwner returns (uint256) {\n        publicrun = !publicrun;\n    }\n    \n     function getBnbBalance() public view returns (uint256) {\n        return address(this).balance;\n    }\n\n    function adminTransferBnbFund() external onlyOwner {\n        msg.sender.transfer(address(this).balance);\n    }\n\n    function getContractTokenBalance(IERC20 _token)\n        public\n        view\n        returns (uint256)\n    {\n        return _token.balanceOf(address(this));\n    }\n\n    function fundsWithdrawal(IERC20 _token, uint256 value) external onlyOwner {\n        require(\n            getContractTokenBalance(_token) >= value,\n            \"the contract doesnt have tokens\"\n        );\n        \n      _token.transfer(msg.sender,value);\n\n    }\n    \n \n}",
  "sourcePath": "/home/zaryab/blockchain_begins/all_about_ethereum/blockChain_FreelanceProjects/aquaAudit/contracts/resr.sol",
  "compiler": {
    "name": "solc",
    "version": "0.6.0+commit.26b70077.Emscripten.clang"
  },
  "schemaVersion": "3.3.3",
  "updatedAt": "2021-06-28T04:46:34.165Z",
  "devdoc": {
    "methods": {
      "owner()": {
        "details": "Returns the address of the current owner."
      },
      "renounceOwnership()": {
        "details": "Leaves the contract without owner. It will not be possible to call `onlyOwner` functions anymore. Can only be called by the current owner.     * NOTE: Renouncing ownership will leave the contract without an owner, thereby removing any functionality that is only available to the owner."
      },
      "transferOwnership(address)": {
        "details": "Transfers ownership of the contract to a new account (`newOwner`). Can only be called by the current owner."
      }
    }
  },
  "userdoc": {
    "methods": {}
  }
}